{
  "contractName": "SI",
  "abi": [
    {
      "constant": true,
      "inputs": [
        {
          "name": "",
          "type": "uint256"
        }
      ],
      "name": "stu",
      "outputs": [
        {
          "name": "rollno",
          "type": "uint256"
        },
        {
          "name": "name",
          "type": "string"
        },
        {
          "name": "ipfs",
          "type": "string"
        }
      ],
      "payable": false,
      "stateMutability": "view",
      "type": "function"
    },
    {
      "constant": true,
      "inputs": [],
      "name": "owner",
      "outputs": [
        {
          "name": "",
          "type": "address"
        }
      ],
      "payable": false,
      "stateMutability": "view",
      "type": "function"
    },
    {
      "inputs": [],
      "payable": false,
      "stateMutability": "nonpayable",
      "type": "constructor"
    },
    {
      "anonymous": false,
      "inputs": [
        {
          "indexed": false,
          "name": "rollno",
          "type": "uint256"
        },
        {
          "indexed": false,
          "name": "name",
          "type": "string"
        },
        {
          "indexed": false,
          "name": "ipfs",
          "type": "string"
        }
      ],
      "name": "details",
      "type": "event"
    },
    {
      "constant": false,
      "inputs": [
        {
          "name": "pr",
          "type": "uint256"
        },
        {
          "name": "ti",
          "type": "string"
        },
        {
          "name": "url",
          "type": "string"
        }
      ],
      "name": "calculate",
      "outputs": [
        {
          "name": "",
          "type": "bool"
        }
      ],
      "payable": false,
      "stateMutability": "nonpayable",
      "type": "function"
    },
    {
      "constant": true,
      "inputs": [
        {
          "name": "v",
          "type": "uint256"
        }
      ],
      "name": "fetch",
      "outputs": [
        {
          "name": "r",
          "type": "uint256"
        },
        {
          "name": "n",
          "type": "string"
        },
        {
          "name": "i",
          "type": "string"
        }
      ],
      "payable": false,
      "stateMutability": "view",
      "type": "function"
    }
  ],
  "bytecode": "0x6060604052341561000f57600080fd5b33600160006101000a81548173ffffffffffffffffffffffffffffffffffffffff021916908373ffffffffffffffffffffffffffffffffffffffff1602179055506109ab8061005f6000396000f300606060405260043610610062576000357c0100000000000000000000000000000000000000000000000000000000900463ffffffff1680637a33e3b0146100675780638c53f85f146101765780638da5cb5b146102bf578063941cd36d14610314575b600080fd5b341561007257600080fd5b61008860048080359060200190919050506103d5565b604051808481526020018060200180602001838103835285818151815260200191508051906020019080838360005b838110156100d25780820151818401526020810190506100b7565b50505050905090810190601f1680156100ff5780820380516001836020036101000a031916815260200191505b50838103825284818151815260200191508051906020019080838360005b8381101561013857808201518184015260208101905061011d565b50505050905090810190601f1680156101655780820380516001836020036101000a031916815260200191505b509550505050505060405180910390f35b341561018157600080fd5b61019760048080359060200190919050506106af565b60405180848152602001806020018060200183810383528581815460018160011615610100020316600290048152602001915080546001816001161561010002031660029004801561022a5780601f106101ff5761010080835404028352916020019161022a565b820191906000526020600020905b81548152906001019060200180831161020d57829003601f168201915b50508381038252848181546001816001161561010002031660029004815260200191508054600181600116156101000203166002900480156102ad5780601f10610282576101008083540402835291602001916102ad565b820191906000526020600020905b81548152906001019060200180831161029057829003601f168201915b50509550505050505060405180910390f35b34156102ca57600080fd5b6102d26106e6565b604051808273ffffffffffffffffffffffffffffffffffffffff1673ffffffffffffffffffffffffffffffffffffffff16815260200191505060405180910390f35b341561031f57600080fd5b6103bb600480803590602001909190803590602001908201803590602001908080601f0160208091040260200160405190810160405280939291908181526020018383808284378201915050505050509190803590602001908201803590602001908080601f0160208091040260200160405190810160405280939291908181526020018383808284378201915050505050509190505061070c565b604051808215151515815260200191505060405180910390f35b60006103df610805565b6103e7610805565b600080858154811015156103f757fe5b906000526020600020906003020190507f9d8ae6a3982bc3c935867e7ddcc53239fee333b9b14438aad58aea64829c38c3816000015482600101836002016040518084815260200180602001806020018381038352858181546001816001161561010002031660029004815260200191508054600181600116156101000203166002900480156104c85780601f1061049d576101008083540402835291602001916104c8565b820191906000526020600020905b8154815290600101906020018083116104ab57829003601f168201915b505083810382528481815460018160011615610100020316600290048152602001915080546001816001161561010002031660029004801561054b5780601f106105205761010080835404028352916020019161054b565b820191906000526020600020905b81548152906001019060200180831161052e57829003601f168201915b50509550505050505060405180910390a180600001548160010182600201818054600181600116156101000203166002900480601f0160208091040260200160405190810160405280929190818152602001828054600181600116156101000203166002900480156105fe5780601f106105d3576101008083540402835291602001916105fe565b820191906000526020600020905b8154815290600101906020018083116105e157829003601f168201915b50505050509150808054600181600116156101000203166002900480601f01602080910402602001604051908101604052809291908181526020018280546001816001161561010002031660029004801561069a5780601f1061066f5761010080835404028352916020019161069a565b820191906000526020600020905b81548152906001019060200180831161067d57829003601f168201915b50505050509050935093509350509193909250565b6000818154811015156106be57fe5b9060005260206000209060030201600091509050806000015490806001019080600201905083565b600160009054906101000a900473ffffffffffffffffffffffffffffffffffffffff1681565b6000600160009054906101000a900473ffffffffffffffffffffffffffffffffffffffff1673ffffffffffffffffffffffffffffffffffffffff163373ffffffffffffffffffffffffffffffffffffffff1614156107f957600080548060010182816107789190610819565b916000526020600020906003020160006060604051908101604052808881526020018781526020018681525090919091506000820151816000015560208201518160010190805190602001906107cf92919061084b565b5060408201518160020190805190602001906107ec92919061084b565b50505050600190506107fe565b600090505b9392505050565b602060405190810160405280600081525090565b8154818355818115116108465760030281600302836000526020600020918201910161084591906108cb565b5b505050565b828054600181600116156101000203166002900490600052602060002090601f016020900481019282601f1061088c57805160ff19168380011785556108ba565b828001600101855582156108ba579182015b828111156108b957825182559160200191906001019061089e565b5b5090506108c79190610912565b5090565b61090f91905b8082111561090b576000808201600090556001820160006108f29190610937565b6002820160006109029190610937565b506003016108d1565b5090565b90565b61093491905b80821115610930576000816000905550600101610918565b5090565b90565b50805460018160011615610100020316600290046000825580601f1061095d575061097c565b601f01602090049060005260206000209081019061097b9190610912565b5b505600a165627a7a72305820ba0b9783a578b05538818e257580e21a00dfae7d5e8a1fbfb1c685293b007b770029",
  "source": "pragma solidity ^0.4.4;\n\ncontract SI {\n\nstruct Enroll\n    {\n        uint rollno;\n        string name;\n        string ipfs;\n    }\nevent details(uint rollno,string name,string ipfs);   \nEnroll[] public stu;   \n\naddress public owner;\n\n  function SI() public \n  {\n     owner=msg.sender;\n  }\n\n\n function calculate(uint pr,string ti,string url) returns(bool)\n {\n        if(msg.sender==owner)\n\t{\n        stu.push(Enroll({rollno:pr,name:ti,ipfs:url}));\n\treturn true;\n\t}\n\treturn false;   \n }\n\n    function fetch(uint v) public constant returns(uint r,string n,string i)\n    {\n        \n        Enroll storage di =stu[v];\n        details(di.rollno,di.name,di.ipfs);\n        return (di.rollno,di.name,di.ipfs);\n      \n    } \n        \n        \n           \n     \n }\n",
  "sourcePath": "/home/kmit/Desktop/Bri/Certificate upload BC/contracts/SI.sol",
  "compiler": {
    "name": "solc",
    "version": "0.4.19+commit.c4cbbb05.Emscripten.clang"
  },
  "schemaVersion": "1.0.1",
  "updatedAt": "2018-03-12T10:38:29.404Z"
}